:020000040800F2
:10000000C0060020050100080F110008C5100008F7
:100010000D110008110200080D1300080000000077
:10002000000000000000000000000000ED110008CA
:10003000130200080000000011110008EF11000871
:100040001F0100081F0100081F0100081F01000810
:100050001F0100081F0100081F0100081F01000800
:100060001F0100081F0100081F0100081F010008F0
:100070001F0100081F0100081F0100081F010008E0
:100080001F0100081F0100081F0100081F010008D0
:100090001F0100081F0100081F0100081F010008C0
:1000A0001F0100081F0100081F0100081F010008B0
:1000B0001F0100081F0100081F0100081F010008A0
:1000C0001F0100081F0100081F0100081F01000890
:1000D0001F0100081F0100081F0100081F01000880
:1000E0001F0100081F0100081F010008DFF810D0E1
:1000F00000F07CF800480047DD170008AFF30080EF
:10010000C00600200648804706480047FEE7FEE795
:10011000FEE7FEE7FEE7FEE7FEE7FEE7FEE7FEE7B7
:1001200051120008ED000008202A04DB203A00FAF2
:1001300002F1002070479140C2F1200320FA03F33E
:10014000194390407047202A04DB203A21FA02F03C
:100150000021704721FA02F3D040C2F12002914001
:10016000084319467047D2B201E000F8012B491E3E
:10017000FBD270470022F6E710B513460A46044644
:100180001946FFF7F0FF204610BD2DE9F05F054648
:10019000002092469B4688460646814640241BE046
:1001A0002846414647462246FFF7CDFF53465A466A
:1001B000C01A914110D3114618462246FFF7B4FFEA
:1001C0002D1A67EB01084F46224601200021FFF758
:1001D000ABFF17EB00094E41201EA4F10104DFDC48
:1001E000484631462A464346BDE8F09F064C074D37
:1001F00006E0E06840F0010394E8070098471034F7
:10020000AC42F6D3FFF776FF441A0008641A0008E0
:10021000FEE770477CB50025012600958DF8045057
:100220008DF8006032466946ED2001F0D7FB2820AA
:1002300000F0A2F808208DF8000001226946F520A0
:1002400001F0CCFB282000F097F85B208DF800002F
:1002500001226946C02001F0C1FB282000F08CF883
:1002600006208DF8000001226946C12001F0B6FB8E
:10027000282000F081F88DF8005001226946C22044
:1002800001F0ACFB282000F077F88DF80050012237
:100290006946C32001F0A2FB282000F06DF804207D
:1002A0008DF8000001226946E62001F097FB282026
:1002B00000F062F863208DF8000001226946E82012
:1002C00001F08CFB282000F057F8C024012201A97E
:1002D000204601F0FDFA9DF80420214614A001F00B
:1002E00017F8282000F048F8641CE4B2FB2CEDD38A
:1002F00010208DF8000001226946F42001F06EFB09
:10030000C82000F039F88DF8005001226946F1202C
:1003100001F064FB282000F02FF88DF80060012226
:100320006946F42001F05AFB282000F025F87CBD36
:10033000424953532D433A207265616441646472AB
:1003400020307825782069732030782578200D0AB0
:100350000000000070B5044600F01CF90546601C62
:1003600002D004480078044400F014F9401BA04275
:10037000FAD370BD0000002010B5044600F030FA3A
:100380000849B0FBF1F000F01EFE601EFFF7E2FF2F
:1003900000F026FA4FF47A71B0FBF1F0BDE810409E
:1003A00000F011BE40420F002DE9F84FDFF8B89180
:1003B0000024A9F1040B23460F2709F1040AABF12D
:1003C000040EC9E00125A5402A40AA427DD1674E0E
:1003D000D1F804C0ACEB0608B44532D014DCBCF153
:1003E000030F3AD009DCBCF1000F2AD0BCF1010F99
:1003F0001CD0BCF1020F31D11DE0BCF1110F17D0A0
:10040000BCF1120F2AD119E0B8F5881F19D006DC0B
:10041000B8F5803F15D0B8F5801F1FD111E0B8F5B1
:10042000001F0ED0B8F5041F18D10AE0CB6815E004
:10043000CB681B1D12E0CB6808330FE0CB680C3390
:100440000CE08B682BB1012B4FF0080303D0456102
:1004500004E0042302E0056100E00023FF2A01D844
:10046000064601E000F104064FEA840501D9A5F132
:100470002005D6F8008007FA05FC28EA0C0803FAE4
:1004800005F548EA0508C6F800804D68ED0062D51C
:10049000374DAE6946F00106AE61AD6924F0030642
:1004A00005F001050095334D06EB050CDCF808500E
:1004B000A607360F07FA06F825EA0805DFF8B88020
:1004C000404503D14FF0000817E044E0DFF8AC806E
:1004D000404502D14FF001080FE0DFF8A48040450D
:1004E00002D14FF0020808E0DFF89880404502D1C1
:1004F0004FF0030801E04FF0040808FA06F848EA54
:100500000508CCF808804D68D9F80060ED024D462A
:1005100001D5164300E096432E604D68DAF800607E
:10052000AD02554601D5164300E096432E604D6856
:10053000DBF80060AD035D4601D5164300E096434D
:100540002E604D68DEF80060ED03754601D5164358
:1005500000E096432E60641C0D682A46E5407FF457
:1005600031AFBDE8F88F0000080401400000111011
:10057000001002400000014000080140000C014052
:1005800000100140001401400AB1016170470904E4
:10059000FBE7000001488068704700000000002071
:1005A0000248816802781144816070470000002091
:1005B000074810B5016841F010010160032000F008
:1005C00067F80F2000F006F800F024F8002010BDB6
:1005D0000020024070B50D4D04464FF47A71287822
:1005E000B1FBF0F00A490968B1FBF0F000F0EBFC58
:1005F00048B9102C07D200222146501E00F028F8DE
:1006000000206C6070BD012070BD00000000002063
:100610000C0000200C4808B5816941F0010181619E
:10062000816901F001010091C16941F08051C1610E
:10063000C06900F0805000900448416821F0E061FA
:1006400041F00071416008BD00100240000001400F
:10065000F0B40E4B1B680C46C3F30223C3F107052D
:10066000042D00D90425191D072901D2002300E01B
:10067000DB1E012606FA05F1491E214099409E40E5
:10068000761E16403143F0BC00F052BE0CED00E087
:10069000064900F0070208684FF6FF03184040EAD9
:1006A0000220034A10430860704700000CED00E090
:1006B0000000FA052DE9F0470F46050061D0434ED2
:1006C000306800F00700B84209D2306820F0070017
:1006D00038433060306800F00700B84251D12868D4
:1006E0003B4C810712D5400703D5606840F4E060B9
:1006F00060602878000703D5606840F4605060604F
:100700006068A96820F0F000084360602878C0079E
:1007100028D06868012810D02168022810D08907E5
:1007200000292EDA616821F0030101436160FFF7BF
:1007300031FF804641F288390DE021688903EFE7F7
:100740008901EDE7FFF726FFA0EB0801494502D933
:100750000320BDE8F0876068696800F00C00B0EB2A
:10076000810FEFD1306800F00700B8420BD9306834
:1007700020F0070038433060306800F00700B842CE
:1007800001D00120E5E72878400705D56068E968D1
:1007900020F4E060084360602878000706D56068B0
:1007A000296920F4605040EAC100606000F03EF822
:1007B0006168084AC1F30311515CC84006490860EA
:1007C00006480068FFF706FF0020C2E7002002404D
:1007D000001002402A1A00080C000020040000202B
:1007E00001480068704700000C00002004480549DB
:1007F00000684968044AC1F30221515CC84070474F
:100800000C000020001002403A1A00080448054974
:1008100000684968044AC1F3C221515CC84070476E
:100820000C000020001002403A1A00080E4A5168DD
:100830000E4801F00C03042B11D0082B0FD10C48EB
:10084000C1F38343C903C05C0AD55168084AC1F3A8
:100850004041921E515C054A5043B0FBF1F0704795
:1008600004494843704700000010024000127A001B
:100870001A1A000800093D002DE9F84F040070D055
:100880002078C04DC00749D06868C0F381000128B6
:1008900007D06868C0F38100022809D16868C003E6
:1008A00006D52868800339D560680028E7D035E090
:1008B0006068B0F5803F0BD010B1B0F5A02F11D01B
:1008C000286820F480302860286820F4802002E026
:1008D000286840F480302860606890B1FFF75AFEC5
:1008E00006460AE0286840F480202860F0E700BF50
:1008F000FFF750FE801B642873D828688003F7D563
:100900000CE0FFF747FE064605E000BFFFF742FE9A
:10091000801B6428F0D828688003F7D420789A4E8A
:1009200080074FF001094FF0000839D5686810F0D2
:100930000C0F07D06868C0F38100022809D16868ED
:10094000C00306D42868800714D52069012808D17F
:1009500010E02069B0B1C6F80090FFF71BFE074613
:1009600005E00AE1FFF716FEC01B0228C4D828687C
:100970008007F7D52868616920F0F80040EAC100D7
:1009800028600DE0C6F80080FFF704FE074604E08B
:10099000FFF700FEC01B022823D828688007F7D481
:1009A000207800072CD57948A169D9B1C0F800900A
:1009B000FFF7F0FD074604E0FFF7ECFDC01B02283F
:1009C0000FD8686A8007F7D571484FF4FA5100686C
:1009D000B0FBF1F0009000BF0098411E0091FAD2E8
:1009E0000EE080E0C0F80080FFF7D4FD074604E089
:1009F000FFF7D0FDC01B022875D8686A8007F7D4BE
:100A00002078400760D5E8690027C00008D4E8696D
:100A100040F08050E861E869012700F080500090C4
:100A20005C480168C90513D40168834641F48071AC
:100A30000160FFF7AFFD824606E000BFFFF7AAFDA9
:100A4000A0EB0A0064284ED8DBF80000C005F5D5FD
:100A5000E06801280AD008B1052813D0286A20F0E0
:100A600001002862286A20F0040002E0286A40F0B1
:100A700001002862E06841F2883B98B1FFF78AFDE7
:100A800082460BE0286A40F004002862EEE700BFCF
:100A9000FFF780FDA0EB0A0159455AD8286A800764
:100AA000F6D50CE0FFF776FD824605E0FFF772FD14
:100AB000A0EB0A0159454CD8286A8007F6D41FB12B
:100AC000E86920F08050E861E06988B36968C1F3A3
:100AD0008101022944D00228C6F8608004D0FFF7C3
:100AE00059FD044638E034E0FFF754FD074604E0C2
:100AF000FFF750FDC01B02282BD828688001F7D4CF
:100B0000206AB0F5803F05D16868A16820F4003004
:100B100008436860D4E908010843696821F4741146
:100B200008436860C6F86090FFF734FD044606E0AD
:100B300025E000BFFFF72EFD001B022809D828681A
:100B40008001F7D51BE000BFFFF724FD001B022842
:100B500002D90320BDE8F88F28688001F4D40EE0A4
:100B60000128F7D06868226A00F48031914204D1EC
:100B7000616A00F47010884201D00120EAE7002089
:100B8000E8E70000001002400000424280044242B8
:100B90000C000020007000407FB5002405468DF851
:100BA00004408DF808402646012101A800F0B8FE57
:100BB000012202A9F12000F08BFE9DF808101AA076
:100BC00000F0A6FB9DF80410C1F3021007281BD00B
:100BD0001FA000F09DFB80208DF8000001226946D7
:100BE000F42000F0FBFE2820FFF7C6FB01208DF863
:100BF000000002466946F42000F0F0FE2820FFF7CE
:100C0000BBFB04B0304670BD29190122204600F01C
:100C10005FFE2A5D21461EA000F07AFB641CE4B250
:100C2000042CF1D3EDE70000424953532D433A2001
:100C300020537465702034205265616420307846FA
:100C4000312056616C75653A202578200A0D000028
:100C5000424953532D433A20537465702037204541
:100C600052524F52204F6363757221204E6F77208E
:100C7000537461747573496E666F726D6174696FD8
:100C80006E46302069732030782578200A0D0000E8
:100C900020424953532D433A205374657020362027
:100CA0005347446174615B25645D3A202564200AE2
:100CB0000D00000070B5040009D0606A002540B145
:100CC00025616561A56294F8510040B10CE00120F6
:100CD00070BD6068B0F5827FF4D0E561F2E784F81A
:100CE0005050204600F040F8022084F8510020685F
:100CF000016821F040010160A088218900F4827020
:100D000001F404410843A18901F400610843217CF6
:100D100001F002010843217D01F001010843218B0C
:100D200001F400710843217F01F03801084394F871
:100D3000201001F080010843218D01F40051084387
:100D400021680860A069042101EA10402168486018
:100D50002068C16921F40061C1616565012084F8E2
:100D60005100002070BD000030B585B00024009413
:100D700001940294039400681449884223D11448D2
:100D8000816941F480518161816901F4805104914C
:100D9000816941F00401816180690E4D00F0040019
:100DA0000490A02000900220019003200390694647
:100DB0002846FFF7F9FA4020CDE9000469462846A5
:100DC0000294FFF7F1FA05B030BD00000030014099
:100DD00000100240000801402DE9FF4F81B0044699
:100DE00090F8500000260E9F1D4693464FF00109D3
:100DF00001280FD04FF0010A84F850A0FFF7CAFB7A
:100E0000804694F85100616801280DD0B1F5827FC9
:100E100008D103E0022005B0BDE8F08FA16809B950
:100E2000042801D00226C9E00298002865D0BBF151
:100E3000000FFBD0002DF9D094F85100042802D007
:100E4000052084F8510000206065C4F838B0E587BB
:100E5000A58702992163E586A586206460642068E1
:100E60000168490603D4016841F040010160E0686F
:100E7000B0F5006F606803D0F0B3012D47D081E07A
:100E800008B1012D3CD1206B21680088C860206B1F
:100E9000801C2063E08E401EE08631E0206881687F
:100EA00089070FD5E18E69B1B9F1010F0AD1216B24
:100EB0000988C160206B801C2063E08E401EE086A4
:100EC0004FF0000920688168C9070CD0E18F51B14B
:100ED000C068A16B0880A06B801CA063E08F401EDF
:100EE000E0874FF00109FFF755FBA0EB0800B8427F
:100EF00006D3781C04D001E009E05BE003265BE048
:100F0000E08E0028CAD1E08F0028C7D140E0206BD6
:100F1000216800780873206B401C2063E08E401E1F
:100F2000E0862FE02068816889070FD5E18E69B1DE
:100F3000B9F1010F0AD1216B09780173206B401CB4
:100F40002063E08E401EE0864FF000092068816833
:100F5000C9070CD0E18F51B1C068A16B0870A06BBC
:100F6000401CA063E08F401EE0874FF00109FFF7AF
:100F700011FBA0EB0800B84202D3781C02D0BAE7FC
:100F8000002FB8D0E08E0028CCD1E08F0028C9D146
:100F900042463946204600F0BCF818B10126202010
:100FA00060650BE0A06818B92068C168806800908F
:100FB000606D08B1012601E084F851A0002084F89A
:100FC0005000304627E710B5401EB0F1807F01D3B6
:100FD000012010BD4FF0E02460610F21601700F088
:100FE000A7F90020A06107202061002010BD70B586
:100FF000040004D094F84100002510B106E001205F
:1010000070BD84F84050204600F024F8242084F875
:1010100041002068C16821F40051C160204600F001
:1010200019F92068016921F4904101612068416942
:1010300021F02A0141612068C16841F40051C1607A
:101040006564202084F8410084F842006563002034
:1010500070BD000030B585B0002400940194029466
:10106000039400681449884224D11448816941F4EA
:1010700080418161816901F480410491816941F07D
:101080000401816180690E4D00F0040004904FF46A
:1010900000700090022001900320039069462846CA
:1010A000FFF782F92815CDE9000469462846029425
:1010B000FFF77AF905B030BD00380140001002405A
:1010C00000080140FEE700000F4810B50D4901601F
:1010D0004FF48271416000218160C1604FF4007261
:1010E0000161C0E905122022C0E907214162816245
:1010F0000A21C162FFF7DEFD002801D072B6FEE7CB
:1011000010BD00000030014018000020FEE7FEE79F
:10111000704738B50B46009204460022802100F04B
:1011200009F8002804D0606D40F0200060650320BD
:1011300038BD00002DE9F8431E4691468846044616
:10114000089DFFF727FA401B351AFFF723FA0746D9
:1011500025480068C0F3CB30684338E0701C37D0B6
:10116000FFF718FAC01BA84203D215B1009860B36C
:101170002CE02068416821F0E00141606068B0F532
:10118000827F0BD1A068B0F5004F02D0B0F5806F20
:1011900004D12068016821F040010160A06AB0F527
:1011A000005F09D12068016821F4005101602068C6
:1011B000016841F400510160012084F851000020D1
:1011C00084F850000320BDE8F8830025401E0090FD
:1011D0002068816838EA010004D000214945BDD16A
:1011E0000020F0E70121F9E70C0000207047FFF72D
:1011F000D7B930B58FB028216846FEF7BBFF142160
:101200000AA8FEF7B7FF01210804CDE90010002469
:10121000029402250491CDE907504FF4E0100990A3
:101220006846FFF729FB08B172B6FEE70F20CDE94B
:101230000A054FF48060CDE90C4002210AA80E9403
:10124000FFF738FA002801D072B6FEE70FB030BDC4
:101250007047000070B5044600680169E26821F437
:101260004051114301612169A06808436169084345
:101270002168CA6841F20C639A430243CA6020683D
:101280004169A26921F44071114341611E492068FE
:10129000884202D1FFF7BAFA01E0FFF7A7FA00EBA4
:1012A000C00101EB0012606864218000B2FBF0F322
:1012B000B3FBF1F36FF018067343B2FBF0F5B2FB2A
:1012C000F0F605EB8305322303EB0515B5FBF1F5CD
:1012D000B6FBF1F605F0F00505EB0615B2FBF0F6EE
:1012E000B2FBF0F0B0FBF1F06FF01802504306EBE8
:1012F000800003EB0010B0FBF1F0216800F00F005C
:101300002844886070BD000000380140FEE70000FE
:101310000FB4054B10B503A9044A029800F028F851
:1013200010BC5DF814FB0000C91700081400002071
:101330000907090E002804DB00F1E02080F8001402
:10134000704700F00F0000F1E02080F8141D704796
:1013500002E008C8121F08C1002AFAD1704770477E
:10136000002001E001C1121F002AFBD170470000DC
:101370002DE9FF4F8DB00F460546002606E02528D3
:101380000BD0DDE90F1290476D1C761C28780028E1
:10139000F5D111B03046BDE8F08F0024A246A14639
:1013A0000122E94900E0044315F8013F203B02FA1D
:1013B00003F00842F7D128782A2810D06FF02F02C6
:1013C0002878A0F13001092914D80AEB8A0102EB30
:1013D000410144F0020400EB010A6D1CF0E701CF6B
:1013E0005FEA000A03D544F40054CAF1000A44F04D
:1013F00002046D1C28782E2817D115F8010F44F02F
:1014000004042A280ED06FF02F022878A0F13001B2
:1014100009290AD809EB890102EB410100EB010916
:101420006D1CF2E757F8049B6D1C28786C280FD0D0
:1014300006DC4C2817D068280DD06A2814D104E0A7
:10144000742810D07A280FD10DE044F400140AE07B
:1014500044F4801401E044F440146978814202D1DC
:1014600004F580146D1C6D1C28786E281ED00CDCD1
:10147000632830D004DC00288BD0582811D19FE09D
:10148000642867D069280CD164E073282DD004DC6F
:101490006F2872D0702804D194E075286ED0782817
:1014A0006DD0DDE90F129047761C4BE1C4F302507A
:1014B000022806D0032809D0042801CF09D00660ED
:1014C00040E101CFF117C0E900613BE101CF0680A7
:1014D00038E1067036E117F8040B8DF800000020A3
:1014E0008DF80100EB46012003E057F804BB4FF0F4
:1014F000FF3061074FF0000102D40DE008F1010157
:10150000884649450FDA8045F8DB1BF808100029AA
:10151000F4D108E008F1010188468142FADB1BF8AA
:1015200008100029F6D1DDE90F23AAEB0800814657
:10153000214600F031F9304400EB080604E0DDE913
:101540000F121BF8010B9047B8F10108F7D22146A2
:101550004846F2E00A21C4F302524FF0000B089112
:10156000022A04D001CFC117032A09D00AE0FF1DC7
:1015700027F00707F7E8020108E02CE01EE01FE073
:1015800000B2C117042A01D140B2C117021E71F185
:10159000000206DA0023D0EB030063EB01012D22E9
:1015A00002E0220504D52B228DF82420012203E03D
:1015B000E20701D02022F7E7904653E00A210BE032
:1015C000102109E010214FF0000B44F004044FF00B
:1015D0000809089103E008214FF0000B0891C4F3BB
:1015E0000252022A04D001CF0021032A06D006E0CD
:1015F000FF1D27F00707F7E8020103E080B2042A85
:1016000000D1C0B24FF0000822072BD52A78702AEB
:1016100007D0DDF820C08CF0100C5CEA0B0C05D074
:101620000EE040228DF82420012208E050EA010358
:1016300006D030238DF824308DF8252002229046E4
:10164000089B83F0080353EA0B030BD150EA010215
:1016500001D1620706D530228DF824204FF0010811
:10166000A9F101092A78582A04D038A20B9208AAB5
:101670000A920BE03AA2F9E75B46089AFEF785FD6D
:101680000B9B9B5C0A9A521E0A92137050EA01024D
:10169000F2D10A98ADEB000000F1200B600702D5F3
:1016A00024F4803401E04FF00109D94502DDA9EBB3
:1016B0000B0000E0002000EB0B0141440890AAEB76
:1016C000010AE00306D4DDE90F232146504600F06D
:1016D00063F806444FF0000908E009A911F8090071
:1016E000DDE90F12904709F10109761CC145F4DBD1
:1016F000E0030CD5DDE90F232146504600F04CF8FD
:10170000064404E0DDE90F1230209047761C08996A
:10171000481E08900029F5DC08E00A980A9900782C
:10172000491C0A91DDE90F129047761CBBF10001BC
:10173000ABF1010BF1DC21465046DDE90F2300F04F
:1017400019F806446D1C21E60928010030313233B6
:1017500034353637383961626364656600000000ED
:1017600030313233343536373839414243444546D7
:10177000000000002DE9F041044600251E461746F2
:10178000880404D405E039462020B0476D1C641E4F
:10179000F9D52846BDE8F0812DE9F0410446002541
:1017A0001E469046C80301D5302700E02027880454
:1017B00004D505E041463846B0476D1C641EF9D596
:1017C0002846BDE8F0810000034909680A6852060E
:1017D000FCD5C2B24A6070477000002088B0002477
:1017E00004940594FEF7E4FEFFF703FD24480094FB
:1017F000019402940394816941F02001816181691F
:1018000001F020010691816941F004018161806944
:101810001C4D00F004000690002210212846FEF71F
:10182000B3FE102000900120CDE9010402200390B6
:1018300069462846FEF7B8FDFFF746FC13481249F3
:1018400001604FF4E131C0E901140C21C460C0E92A
:1018500004418461C461FFF7CAFB08B172B6FEE7B8
:101860004FF47A70FEF776FDFEF7D4FC08A0FFF780
:101870004FFD04A8FFF790F9C820FEF76BFDF8E7CD
:1018800000100240000801400038014070000020B4
:101890002A2A2A2A2A2A2A2A2A2A2A2A2A2A2A4E84
:1018A000455720424F4F5421205379737443616C44
:1018B0006C3A20496E697469616C2046696E69737F
:1018C00068212A2A2A2A2A2A2A2A2A2A200D0A00B4
:1018D00070B50D460F491446921C0A800E49032329
:1018E0000B7048700020034603E00E18401CB370D4
:1018F000C0B2A042F9D30949074800F039F80020E6
:10190000064904E00A1892782A54401CC0B2A0424A
:10191000F8D370BD10000020B8000020B9010020ED
:1019200070B505460F484A1C0C4602800E4805213A
:10193000017000210B4603E04618491C7370C9B2C0
:10194000A142F9D30949084800F012F800210748DC
:1019500004E0421852786A54491CC9B2A142F8D333
:1019600070BD000010000020B8000020B901002068
:101970002DE9F843DFF8449015460E4680460024D2
:10198000224610214846FEF7FFFD05270DE03219DB
:1019900008EB040101230A480097FFF71DFA10B174
:1019A00008A0FFF7B5FC641CA4B2AC42EFD34846D4
:1019B000BDE8F84301221021FEF7E6BD0008014012
:1019C00018000020535049312053656E6420466151
:1019D000696C656421200A0D00000000F0B40B4C16
:1019E000931C022523800A4C25706070002004E0BF
:1019F0000D5C2618401CB570C0B29042F8D3F0BC04
:101A00001A4604490248FFF7B3BF00001000002047
:101A1000B8000020B90100200102020304050607F6
:101A200008090A0B0C0D0E0F10100000000000003A
:101A3000000001020304060708090000000001027B
:101A400003040000641A00080000002018000000D1
:101A5000501300087C1A000818000020A806000097
:101A600060130008010000001000000000000000EA
:0C1A70000024F400000000000000000052
:04000005080000ED02
:00000001FF
